:060000000A128A110C280F
:10000800FE00030EF1000A08F2000A128A15DF2B1F
:100018000A128A110F288313ED30FD000E30FE00FE
:100028001A30FF00A03084000A128A1576230A12BB
:100038008A114230840060300A128A1516230A1287
:100048008A1183010A128A1129280A128A15E524BD
:100058000A128A110A128A15D8250A128A110A1256
:100068008A1527230A128A115030F7000030F80049
:100078000A128A1539230A128A11831203130808EF
:10008800BF00C0013F08F7004008F8000A128A15AF
:1000980039230A128A110A128A1530230A128A1180
:1000A800033083120313C1000830C0007630BF004C
:1000B800BF0B5C28C00B5C28C10B5C2800000A122F
:1000C8008A1527230A128A115130F7000030F800E8
:1000D8000A128A1539230A128A110030F300F40033
:1000E8000A128A157F240A128A11740883120313CC
:1000F800C3007308C2000A128A1530230A128A1133
:10010800033083120313C1000830C0007630BF00EB
:10011800BF0B8C28C00B8C28C10B8C280000013029
:1001280083120313BF003F088807322C4A30A2000D
:100138000030A3004930A4000030A5004830A600D4
:100148000030A7004730A8000030A9000A128A151D
:1001580067260A128A11463083120313A200003060
:10016800A3004530A4000030A5004430A6000030AC
:10017800A7000A128A1559250A128A111330831208
:100188000313A6004A08A700A801A71BA80349084B
:10019800A900AA01A91BAA034808AB00AC01AB1B24
:1001A800AC034C300A128A115A240A128A11F90136
:1001B800F90A01300A128A1513240A128A114C30DE
:1001C8000A128A1535240A128A112A308312031357
:1001D800A6004308A8004208A7004608A900AA01EB
:1001E800A91BAA034508AB00AC01AB1BAC03440830
:1001F800AD00AE01AD1BAE034C300A128A115A2471
:100208000A128A11F901F90A02300A128A1513240E
:100218000A128A114C300A128A1535240A128A11D8
:10022800033083120313C1000830C0007630BF00CA
:10023800BF0B1C29C00B1C29C10B1C29000033282B
:100248000A128A1550230A128A11F901F90A013093
:100258000A128A1513240A128A117630831203139C
:10026800A6004A08A700A801A71BA8034C300A1239
:100278008A115A240A128A114C300A128A15352416
:100288000A128A118312031386184B294C296929EB
:10029800861C4F2950294C29343083120313C0007F
:1002A800F130BF00BF0B5629C00B5629013083120D
:1002B8000313BF003F08CA074A08803A603E031C80
:1002C8006629672969291F30CA0006196C296D2912
:1002D8003328061D702971296D29343083120313C0
:1002E800C000F130BF00BF0B7729C00B7729FF3062
:1002F80083120313BF003F08CA074A08803A7F3EAB
:10030800031887298829562CCA01CA0A33280A12D1
:100318008A1550230A128A11F901F90A01300A12C2
:100328008A1513240A128A11803083120313A60037
:100338004908A700A801A71BA8034C300A128A1174
:100348005A240A128A114C300A128A1535240A12C4
:100358008A11831203138618B229B329D029861C5F
:10036800B629B729B329343083120313C000F130FA
:10037800BF00BF0BBD29C00BBD2901308312031379
:10038800BF003F08C9074908803A733E031CCD29BE
:10039800CE29D0290C30C9000619D329D4293328ED
:1003A800061DD729D829D429343083120313C00055
:1003B800F130BF00BF0BDE29C00BDE29FF308312EE
:1003C8000313BF003F08C9074908803A7F3E031856
:1003D800EE29EF29562CC901C90A33280A128A15B1
:1003E80050230A128A11F901F90A01300A128A15F2
:1003F80013240A128A1141300A128A159A230A1202
:100408008A1100300A128A159A230A128A116F304B
:100418000A128A159A230A128A1179308312031351
:10042800A6004808A700A801A71BA8034C300A1279
:100438008A115A240A128A114C300A128A15352454
:100448000A128A118312031386182B2A2C2A492A86
:10045800861C2F2A302A2C2A343083120313C0001A
:10046800F130BF00BF0B362AC00B362A0130831289
:100478000313BF003F08C8074808803A1C3E031C06
:10048800462A472A492A6330C80006194C2A4D2AA9
:100498003328061D502A512A4D2A3430831203135B
:1004A800C000F130BF00BF0B572AC00B572AFF30DE
:1004B80083120313BF003F08C807480A031D652AB3
:1004C800662A562CC80133280A128A1550230A12A4
:1004D8008A11F901F90A01300A128A1513240A123D
:1004E8008A11413083120313A6004708A700A80108
:1004F800A71BA8034C300A128A115A240A128A111F
:100508004C300A128A1535240A128A11F901F90A9F
:1005180002300A128A1513240A128A1191308312A2
:100528000313A6000B30F30047080A128A15852327
:100538000A128A11A03E83120313A7004C300A1234
:100548008A115A240A128A114C300A128A15352443
:100558000A128A11831203138618B32AB42AD12ADD
:10056800861CB72AB82AB42A343083120313C00071
:10057800F130BF00BF0BBE2AC00BBE2A0130831268
:100588000313BF003F08C7074708803A793E031C9A
:10059800CE2ACF2AD12A0630C7000619D42AD52A4E
:1005A8003328061DD82AD92AD52A343083120313B2
:1005B800C000F130BF00BF0BDF2AC00BDF2AFF30BD
:1005C80083120313BF003F08C707470A031DED2A1C
:1005D800EE2A562CC70133280A128A1550230A120C
:1005E8008A11F901F90A01300A128A1513240A122C
:1005F8008A116B3083120313A6004608A700A801CE
:10060800A71BA8034C300A128A115A240A128A110D
:100618004C300A128A1535240A128A1183120313E0
:100628008618172B182B352B861C1B2B1C2B182BCD
:10063800343083120313C000F130BF00BF0B222BEC
:10064800C00B222B013083120313BF003F08C607DB
:100658004608803A683E031C322B332B352B173063
:10066800C6000619382B392B3328061D3C2B3D2B89
:10067800392B343083120313C000F130BF00BF0B95
:10068800432BC00B432BFF3083120313BF003F08DB
:10069800C607460A031D512B522B562CC601332878
:1006A8000A128A1550230A128A11F901F90A01302F
:1006B8000A128A1513240A128A115E308312031350
:1006C800A6004508A700A801A71BA8034C300A12DA
:1006D8008A115A240A128A114C300A128A153524B2
:1006E8000A128A118312031386187B2B7C2B992BF1
:1006F800861C7F2B802B7C2B343083120313C00085
:10070800F130BF00BF0B862BC00B862B0130831244
:100718000313BF003F08C5074508803A443E031C41
:10072800962B972B992B3B30C50006199C2B9D2B9C
:100738003328061DA02BA12B9D2B343083120313C5
:10074800C000F130BF00BF0BA72BC00BA72BFF3099
:1007580083120313BF003F08C507450A031DB52BC5
:10076800B62B562CC50133280A128A1550230A12B3
:100778008A11F901F90A01300A128A1513240A129A
:100788008A11503083120313A6004408A700A80159
:10079800A71BA8034C300A128A115A240A128A117C
:1007A8004C300A128A1535240A128A11831203134F
:1007B8008618DF2BE02BFD2B861CE32BE42BE02B8C
:1007C800343083120313C000F130BF00BF0BEA2B93
:1007D800C00BEA2B013083120313BF003F08C40784
:1007E8004408803A443E031CFA2BFB2BFD2B3B307C
:1007F800C4000619002C012C3328061D042C052CD6
:10080800012C343083120313C000F130BF00BF0B3A
:100818000B2CC00B0B2CFF3083120313BF003F08B7
:10082800C407440A031D192C1A2C562CC40133285A
:100838004908A0004808A1004708A2004608A300EC
:100848004508A4004408A5004A080A128A11662629
:100858000A128A1183120313CB0133284B08BF00F5
:10086800C001BF1BC0034008003A03193C2C1C2CD4
:100878003F08003A03199A28013A03192429033A30
:1008880003198B29013A0319F229073A0319682A2F
:10089800013A0319F02A033A0319542B013A0319B0
:1008A800B82B1C2C33280A128A110C288312031324
:1008B800BE002730B600512E25303D060319652CA1
:1008C800662C702C3E0884003D088313800001309C
:1008D800AF002F08BE07512EBB01BC01B201792C15
:1008E80032150130AF002F08A607260884000A1227
:1008F8008A111C270A128A11AF00B0013008003A89
:100908000319872C8C2C2F08303A0319742C8C2C43
:10091800260884000A128A111C270A128A110A1250
:100928008A1560230A128A11031C9B2C9C2C652DA6
:1009380083120313BB01BC010A30F3000030F4003A
:10094800831203133C08F6003B08F5000A128A15C7
:100958005A240A128A11740883120313BC007308FC
:10096800BB00260884000A128A111C270A128A1161
:10097800D03EAF00FF3003180030B0002F08BB078F
:100988000318BC0A3008BC070130AF002F08A607BF
:10099800260884000A128A111C270A128A110A12D0
:1009A8008A1560230A128A110318DB2CDC2CA02C70
:1009B800652D3608840083130008B7000030B8009E
:1009C8000130AF002F08B60737083804031DED2C97
:1009D800EE2CF22C8A30B7008030B800B901BA0189
:1009E800FB2C0130B9070318BA0A0030BA073908D6
:1009F8003707840038080318380AFF000A128A11DA
:100A080012270A128A11003A031D0B2D0C2DF52C02
:100A18003C083A02031D122D3B0839020318152D14
:100A2800162D1D2D3908BB023A08031CBC03BC0255
:100A3800292DBB01BC01292D3E08840020308313D9
:100A480080000130AF002F08BE07FF30BB07031836
:100A5800BC0AFF30BC073B0A031D362D3C0A031DA8
:100A6800362D372D202D512D3808FF0037088400EA
:100A78000A128A1112270A128A11AF003E0884004E
:100A88002F08831380000130B7070318B80A003015
:100A9800B8070130AF002F08BE070130B902003097
:100AA800031CBA03BA02390A031D5E2D3A0A031D54
:100AB8005E2D5F2D382D512EC030AF002F08B204A7
:100AC800842D013083120313A607FF302607840004
:100AD8000A128A111C270A128A11BD00AF00B00140
:100AE8003008003A0319792D512E2F08003A0319BE
:100AF800612E733A0319DD2C063A0319602D512E25
:100B08003608840083130008B300840A0008B40080
:100B18000230AF002F08B607BD01BD0A3D08AF007F
:100B28002F07013E84000A128A111C270A128A1113
:100B3800B0000A128A111C270A128A11B100310862
:100B48003402031DA92D300833020318AC2DAD2D36
:100B5800AE2DB82D0130AF002F08BD0705303D067A
:100B6800031DB72DB82D922D3C08803A803C031DFB
:100B7800BF2D3B083D020318C22DC32DCF2D831274
:100B880003133D08AF00B0012F08BB023008031C57
:100B9800BC03BC02D32D83120313BB01BC01321D5D
:100BA800D62DD72DF32D3B083C040319DC2DDD2D64
:100BB8000E2E3E0884003030831380000130AF00D1
:100BC8002F08BE07FF30BB070318BC0AFF30BC075D
:100BD8003B083C04031DF12DF22DDD2D0E2E3B08A4
:100BE8003C040319F82DF92D0E2E3E088400203000
:100BF800831380000130AF002F08BE07FF30BB070A
:100C08000318BC0AFF30BC073B083C04031D0D2E2B
:100C18000E2EF92D3D08B500482E0A30A0000030F0
:100C2800A1003508AF002F07013E84000A128A117F
:100C38001C270A128A11F3000A128A111C270A12A9
:100C48008A11F4003408F6003308F5000A128A11F4
:100C5800BC270A128A11740883120313A3007308AD
:100C6800A2000A128A151D250A128A11831203137B
:100C78002008303EBD003E0884003D0883138000F4
:100C88000130AF002F08BE07FF30AF002F08B507AF
:100C9800350A031D502E512E112E0130A607FF30A4
:100CA800260784000A128A111C270A128A11BD001D
:100CB8003D08031D602E612E602C3E0884008313BE
:100CC8008001080083120313A6007F30F900790819
:100CD800A5053F30F9007908A3050A128A152723CC
:100CE8000A128A11D030F7000030F8000A128A156B
:100CF80039230A128A110030F700F8000A128A15FF
:100D080039230A128A118312031325080A128A1535
:100D1800B0230A128A11F900FA017908F7007A0853
:100D2800F8000A128A1539230A128A11831203134A
:100D380024080A128A15B0230A128A11F900FA0146
:100D48007908F7007A08F8000A128A1539230A1276
:100D58008A118312031323080A128A15B0230A1270
:100D68008A11F900FA017908F7007A08F8000A12DE
:100D78008A1539230A128A118312031322080A12C8
:100D88008A15B0230A128A11F900FA017908F700C6
:100D98007A08F8000A128A1539230A128A1183126E
:100DA800031326080A128A15B0230A128A11F900B9
:100DB800FA017908F7007A08F8000A128A15392327
:100DC8000A128A118312031320080A128A15B02303
:100DD8000A128A11F900FA017908F7007A08F8006E
:100DE8000A128A1539230A128A1183120313210859
:100DF8000A128A15B0230A128A11F900FA01790831
:100E0800F7007A08F8000A128A1539230A128A119B
:100E18000A128A1530230A128A110800FF1B1C2F98
:100E280083137F1883170008840A0319FF0A080030
:100E380007308A000408840A820700340134003429
:100E48000A34003464340034E8340334103427346A
:100E58000E3400341634193411341134113400347A
:100E6800533431343A342034203420342534303467
:100E7800323475342F3425343034323475342F34C9
:100E88003234303425343034323475340034253437
:100E9800303433347534203420342034203425342D
:100EA8003034323475343A3425343034323475348D
:100EB8003A342534303432347534003444346934A7
:100EC80061342034733465346D3461346E34613484
:100ED8003A34203425347534003453346534673457
:100EE80075346E3464346F343A34203425343034F5
:100EF8003234753400344D3469346E347534743496
:100F08006F343A3420342534303432347534003474
:100F180048346F34723461343A34203425343034F0
:100F28003234753400344434693461343A3420340A
:100F3800253430343234753400344D3465347334E8
:100F48003A3420342534303432347534003428347B
:100F58006E3475346C346C3429340034253473346D
:100F680020342034203420340034253473340034C1
:100F7800F801F901730874040319C32FC42FFB2F58
:100F8800FA01FA0AD22F01300310F30DF40DFF3ED7
:100F9800031DC82F0130F7007708FA07F41FD52F73
:100FA800D62FC72F01300310F80DF90DFF3E031D92
:100FB800D72F74087602031DE32F73087502031CEC
:100FC800E62FE72FEE2F7308F5027408031CF603CB
:100FD800F602781401300310F40CF30CFF3E031DE5
:100FE800EF2F0130FA02031DFA2FFB2FD62F7908B5
:080FF800F4007808F300080082
:10162C0064008001840A0406031900340406172B95
:10163C000A128A1543230A128A158316031391146E
:10164C0008000A128A1543230A128A1583160313FB
:10165C00111408000A128A1543230A128A158316DC
:10166C000313111508000A128A1543230A128A154E
:10167C0077088312031393000800831603131419BD
:10168C00482B492B432B11081F39031D4E2B4F2B75
:10169C00432B080001300A128A15F9230A128A1505
:1016AC000630FA003030F900F90B5A2BFA0B5A2B92
:1016BC0000000800F400F3013A3074020318672BA1
:1016CC00682B702B30307402031C6D2B6E2B702B1F
:1016DC00F301F30A730C08007E088A007F0882006D
:1016EC000A128A1572230A128A158000840A0408C9
:1016FC007D0603190034FF0A0319FE0A762BF60047
:10170C00F501761C8A2B8B2B8F2B7308F400740835
:10171C00F5070310F30D0310F60C7608031D972B39
:10172C00982B872B75080800F700831203130914F4
:10173C0077080A128A1578270A128A15831203135E
:10174C0089141A30F600F60BA92B00008312031330
:10175C0089100800F4007408F600F5010A307602CE
:10176C00031CB92BBA2BC12B0A30F6021030F30034
:10177C007308F507B42B7608F3007308F5077508A2
:10178C000800F5007508F6000310F60C7830F3002D
:10179C007308F6057608F30002300310F30CFF3ED5
:1017AC00031DD32B75080F397307F40076087407E3
:1017BC0008000B1CE22BE32BF22B831203130618ED
:1017CC00E82BE92BF12B0130F0007008CB07061C3D
:1017DC00F02BF12BED2B0B1072088A00710E83008D
:1017EC00FE0E7E0E0900F800831203130910780810
:1017FC000A128A1578270A128A1583120313891480
:10180C000B30F7006230F600F60B0A2CF70B0A2CA3
:10181C000000831203138910080083120313A00025
:10182C002003031D1A2C1B2C252C79087F3EA100AC
:10183C0021080A128A15F9230A128A15342C02304F
:10184C002006031D2A2C2B2C342C7908BF3EA1001A
:10185C0021080A128A15F9230A128A150800831224
:10186C000313A200A001A1014E2C20082207F800AE
:10187C007808840000080A128A159A230A128A151D
:10188C00013083120313A0070318A10A0030A1072B
:10189C0020082207F8007808840083130008031D31
:1018AC00582C592C3B2C0800F701F801731C5F2CA9
:1018BC00602C662C7508F7070318F80A7608F807E9
:1018CC0001300310F50DF60DFF3E031D672C0130A2
:1018DC000310F40CF30CFF3E031D6E2C7308740400
:1018EC00031D792C7A2C5C2C7808F4007708F30013
:1018FC0008000A128A1543230A128A158316031349
:10190C0091150A128A1543230A128A15831203139E
:10191C001308F500F6017508F7007608F8000A12AE
:10192C008A1543230A128A1573037404031D9F2C12
:10193C00A02CA42C831603139112A72C831603132B
:10194C00911611167808F4007708F3000800283077
:10195C008312031394008316031391018312031350
:10196C002608AA002708AB002808AC002908AD00FF
:10197C0002300310AA0DAB0DAC0DAD0DFF3E031DD7
:10198C00BF2C2D08F6002C08F5002B08F4002A08B3
:10199C00F3000030FA007A30F9001230F800003011
:1019AC00F7000A128A1510270A128A157308FF3ECF
:1019BC0083160313930094018715071608008316EA
:1019CC000317880189018316031389018501860198
:1019DC008801831203138601880185018901003077
:1019EC000A128A15B7260A128A1501300A128A15AC
:1019FC00B7260A128A1502300A128A15B7260A125D
:101A0C008A158B177030831603138F040F14003054
:101A1C0083120313A9000130A8008630A700A03060
:101A2C00A6000A128A15AD240A128A150800831220
:101A3C000313200821040319242D252D542DA50151
:101A4C00A50A332D01300310A00DA10DFF3E031D7F
:101A5C00292D0130A4002408A507A11F362D372DF0
:101A6C00282D21082302031D3D2D20082202031CD2
:101A7C00402D412D472D2008A2022108031CA30351
:101A8C00A30201300310A10CA00CFF3E031D482D36
:101A9C000130A502031D532D542D372D2308A10011
:101AAC002208A00008008312031326088400831761
:101ABC00271C831300300A128A1596250A128A15E0
:101ACC007F390A128A15C7230A128A1580008312DD
:101ADC000313240884008317251C831301300A1276
:101AEC008A1596250A128A157F390A128A15C72378
:101AFC000A128A15800083120313220884008317AC
:101B0C00231C831302300A128A1596250A128A1591
:101B1C003F390A128A15C7230A128A158000080059
:101B2C0083120313A0000A128A1527230A128A159E
:101B3C00D030F7000030F8000A128A1539230A1247
:101B4C008A15831203132008F900FA017908F700AB
:101B5C007A08F8000A128A1539230A128A150A1211
:101B6C008A151E230A128A15D130F7000030F800AE
:101B7C000A128A1539230A128A150030F300F40070
:101B8C000A128A157F240A128A157308831203130A
:101B9C00A1000A128A1530230A128A158312031324
:101BAC002108080000300A128A1578270A128A15B3
:101BBC003430FA00F130F900F90BE22DFA0BE22D7A
:101BCC00E72D30300A128A15F9230A128A150D30C6
:101BDC00FA00FB30F900F90BF12DFA0BF12DF62D73
:101BEC0030300A128A15F9230A128A154230F9008C
:101BFC00F90BFE2D000038300A128A15F9230A124F
:101C0C008A150C300A128A15F9230A128A1501302A
:101C1C000A128A15F9230A128A1506300A128A1535
:101C2C00F9230A128A15080044346F346D34693470
:101C3C006E3467346F3400340034003400344C3468
:101C4C0075346E346534733400340034003400342D
:101C5C00003400344D34613472347434653473346C
:101C6C00003400340034003400344D3469346534AD
:101C7C00723463346F346C34653473340034003430
:101C8C004A34753465347634653473340034003436
:101C9C0000340034003456346934653472346E3494
:101CAC0065347334003400340034003453346134FC
:101CBC006234613464346F340034003400340034E2
:101CCC00003483120313280884008317291C831300
:101CDC0003300A128A1596250A128A157F390A12C0
:101CEC008A15C7230A128A1580008312031322084F
:101CFC0084008317231C831304300A128A1596253B
:101D0C000A128A153F390A128A15C7230A128A1534
:101D1C00800083120313240884008317251C83136B
:101D2C0005300A128A1596250A128A151F390A12CD
:101D3C008A15C7230A128A158000831203132608FA
:101D4C0084008317271C831306300A128A159625E4
:101D5C000A128A150A128A15C7230A128A158000DC
:101D6C000800F3008316031381137308031DBF2EA1
:101D7C00C02EC42E061415141614092F7303031D3C
:101D8C00C82EC92ECD2E861495149614092F023008
:101D9C007306031DD22ED32ED72E06151515161528
:101DAC00092F03307306031DDC2EDD2EE12E861564
:101DBC0095159615092F04307306031DE62EE72E94
:101DCC00EB2E061615161616092F05307306031D75
:101DDC00F02EF12EF52E861695169616092F063036
:101DEC007306031DFA2EFB2EFF2E0617151716175A
:101DFC00092F07307306031D042F052F092F861793
:101E0C0095179617092F8B190C2F0D2F0F2F0B10C1
:101E1C008B150800003083120313A4000030A300BC
:101E2C000030A2000030A10076087504740473041D
:101E3C000319212F222F6F2FA501A50A322F013054
:101E4C00A0000310F30DF40DF50DF60DA00B272FCC
:101E5C000130A0002008A507F61F352F362F252F9F
:101E6C000130A0000310A10DA20DA30DA40DA00B19
:101E7C00382F76087A02031D4D2F75087902031D41
:101E8C004D2F74087802031D4D2F73087702031C25
:101E9C00502F512F602F7308F7027408031C740F16
:101EAC00F8027508031C750FF9027608031C760FEF
:101EBC00FA02211401300310F60CF50CF40CF30C9F
:101ECC00FF3E031D612F0130A502031D6E2F6F2FE6
:101EDC00362F2408F6002308F5002208F400210808
:101EEC00F3000800F5008316031385010130750516
:101EFC00F3008312031305087306FE39730685007D
:101F0C007508F3000310730C0139F400F40D050887
:101F1C007406FD39740685007508F3000230031051
:101F2C00F30CFF3E031D952F73080139F400F40DDB
:101F3C00F40D05087406FB39740685007508F3006A
:101F4C0003300310F30CFF3E031DA72F7308013958
:101F5C00F400F40DF40DF40D05087406F73974064D
:101F6C0085007508F30004300310F30CFF3E031DCD
:101F7C00BA2F73080139F400F40E05087406EF3912
:101F8C00740685007508F30005300310F30CFF3E52
:101F9C00031DCB2F73080139F400F40EF40D050862
:101FAC007406DF39740685007508F30006300310DB
:101FBC00F30CFF3E031DDD2F73080139F400F40E02
:101FCC00F40DF40D05087406BF3974068500750808
:101FDC00F30007300310F30CFF3E031DF02F7308C2
:101FEC000139F400F40CF40C050874067F397406FE
:041FFC008500080054
:08400000FF3FFF3FFF3FFF3FC0
:04400E00D420FF3F7C
:00000001FF
