:060000000A128A110C280F
:10000800FE00030EF1000A08F2000A128A11BF2846
:100018000A128A110F28F701F80183010A128A11BE
:100028002329831203130C13831603130C170B17BE
:100038008728831603170814831603130514C3307F
:10004800831203139F05A6288316031788148316A3
:1000580003138514831203131F08C33904389F0040
:10006800A62883160317081583160313051583128C
:1000780003131F08C33908389F00A62883160317DF
:100088008815831603138515831203131F08C339B4
:100098000C389F00A6288316031708168316031327
:1000A8008516831203131F08C33910389F00A6282A
:1000B8008316031788168316031309148312031370
:1000C8001F08C33914389F00A6288316031708177A
:1000D800831603138914831203131F08C3391838AE
:1000E8009F00A6288316031788178316031309157C
:1000F800831203131F08C3391C389F00A6288316D0
:1001080003178801A6287408003A03198C28832845
:100118007308003A03191D28013A03192828033ADD
:1001280003193528013A03194228073A03194F28B9
:10013800013A03195C28033A03196928013A03199B
:1001480076288328831203131F083F3980389F00BD
:10015800831603139F131F129F12831203131F1476
:100168000C130D30F600FB30F500F50BB928F60B33
:10017800B928BE280800831203130C1FC428C528F9
:10018800C8281E0886000C138C1DCB28CC281C29D7
:100198001412141BD028D128D528941FD428D52868
:1001A800DA281308F800141394131416831603138B
:1001B800941ADF28E028FA281419E328E428FA28F2
:1001C800831203131308F8008C11141683160313F3
:1001D800141CEF28F028EA28831203131308880058
:1001E800A630F000F00BF62800001929941AFD2813
:1001F800FE281929141D012902291929831203131C
:100208001308F80083160313141083120313060847
:1002180093001416A630F000F00B10290000831686
:1002280003131418182919291329831203138C117D
:1002380072088A00710E8300FE0E7E0E09000A12F3
:100248008A1147210A128A110030F300F4000A12B9
:100258008A1115200A128A110A128A117B210A12A0
:100268008A11063083120313A2001330A100AD30A7
:10027800A000A00B3D29A10B3D29A20B3D29302947
:100288000A128A110C28831603178801890183161C
:1002980003138501860188018312031385018601F2
:1002A80088017030831603138F040F1450300A121C
:1002B8008A1161210A128A110800F3007308831653
:1002C800031393003630831203139400803083168F
:1002D8000313940001309100871507168B170B172D
:1002E800831203138C11831603138C1508008312D1
:1002F80003139F18802981298B299F140630F40045
:100308003030F300F30B8629F40B8629000008002F
:08400000FF3FFF3FFF3FFF3FC0
:04400E00D420FF3F7C
:00000001FF
